{
  "transactions": [
    {
      "hash": "0x9aec9094e42153507e0a7d83052757a8b401d86673936377dac6fb03e47f03e1",
      "transactionType": "CREATE",
      "contractName": "GuardFacetAllowance",
      "contractAddress": "0x0f8686127e460ec0b30693270ff18db4d4507b0b",
      "function": null,
      "arguments": null,
      "transaction": {
        "from": "0x539ea4213dae490e764d779457bb8c1e7f6864bd",
        "gas": "0xefe82",
        "value": "0x0",
        "input": "0x6080604052348015600e575f5ffd5b50610cb28061001c5f395ff3fe608060405234801561000f575f5ffd5b506004361061004a575f3560e01c80632acc37aa1461004e578063728c29721461006357806375f0bb5214610088578063932713681461009b575b5f5ffd5b61006161005c3660046107b9565b6100ae565b005b6100766100713660046108bd565b6100ec565b60405190815260200160405180910390f35b610061610096366004610936565b6101ee565b6100616100a93660046107b9565b610312565b6040518115158152829033907f08de91fc368aa66c4ce7263ab8c5e84bd83c878cbd41e15abfbd0b238f843676906020015b60405180910390a35050565b5f7fe37361d59a2b57d11320ae87d3c40c37d0668fe0511d9eb1e222c1a12052c3b261011b8787878787610348565b8154909250610100900460ff161561015a5760405163b20e9f7b60e01b81523360048201525f6024820152604481018390526064015b60405180910390fd5b5f5f61016889898989610383565b9150915061017a833384845f89610415565b61018460016106b6565b61018d5f6106bd565b610196846106c3565b868051906020012084336001600160a01b03167fb120fc105d7e3c9584333a33da2c18647bc74a983d832ead4749d555f5dab5cf898c6040516101da929190610a45565b60405180910390a450505095945050505050565b5f5f5f3390506001816001600160a01b031663affed0e06040518163ffffffff1660e01b8152600401602060405180830381865afa158015610232573d5f5f3e3d5ffd5b505050506040513d601f19601f820116820180604052508101906102569190610a60565b039150806001600160a01b031663d8d11f788f8f8f8f8f8f8f8f8f8c6040518b63ffffffff1660e01b81526004016102979a99989796959493929190610a77565b602060405180830381865afa1580156102b2573d5f5f3e3d5ffd5b505050506040513d601f19601f820116820180604052508101906102d69190610a60565b92506102e15f6106b6565b6102ea826106bd565b6102f3836106c3565b50610303338e8e8e8e86886106ca565b50505050505050505050505050565b6040518115158152829033907f4107f881b87b978fe09483fdf775b64beed398d68fd143dc4a2625ffc6b4f710906020016100e0565b5f8585858585604051602001610362959493929190610b16565b60405160208183030381529060405280519060200120905095945050505050565b83835f83600181111561039857610398610a11565b1415806103a6575060048451105b61040c575f6103b485610b92565b90506356fa634560e01b6001600160e01b03198216016103e0575050506024820151604483015161040c565b63dc478d2360e01b6001600160e01b031982160161040a575050506044820151606483015161040c565b505b94509492505050565b6001600160a01b0385165f9081526002870160205260408120906104376107a6565b82549091506001600160401b0380831691161461048457815467ffffffffffffffff19166001600160401b0382161782556001820180546fffffffffffffffffffffffffffffffff191690555b81546001600160401b03828116600160401b90920416146104de57815477ffffffffffffffffffffffffffffffff00000000000000001916600160401b6001600160401b0383160267ffffffffffffffff60801b19161782555b60018201545f90600160801b90046001600160801b031615801590610523575060018301546001600160801b03600160801b820481169161052191899116610be4565b115b83549091505f90600160c01b90046001600160401b031615801590610576575083546001600160401b03600160c01b820481169161056b91600160801b909104166001610bfd565b6001600160401b0316115b905081806105815750805b1561061d576001600160a01b03808a165f90815260018c0160209081526040808320938c168352929052205460ff166105ee57604051635198e9b360e01b81526001600160a01b03808b166004830152602482018890526044820187905289166064820152608401610151565b6001600160a01b03808a165f90815260018c0160209081526040808320938c16835292905220805460ff191690555b6001840180548891905f9061063c9084906001600160801b0316610c1c565b92506101000a8154816001600160801b0302191690836001600160801b031602179055506001845f0160108282829054906101000a90046001600160401b03166106869190610bfd565b92506101000a8154816001600160401b0302191690836001600160401b0316021790555050505050505050505050565b8060025d50565b805f5d50565b8060015d50565b7fe37361d59a2b57d11320ae87d3c40c37d0668fe0511d9eb1e222c1a12052c3b28054610100900460ff161561072c5760405163b20e9f7b60e01b81526001600160a01b03891660048201526024810184905260448101839052606401610151565b5f5f61073a89898989610383565b9150915061074c838b84848989610415565b8680519060200120848b6001600160a01b03167f5adc4f9bbc59523ca68e64999b13f3c47da7574de3511728710094de71c0101f888a8d60405161079293929190610c3b565b60405180910390a450505050505050505050565b5f6107b46201518042610c5d565b905090565b5f5f604083850312156107ca575f5ffd5b82359150602083013580151581146107e0575f5ffd5b809150509250929050565b6001600160a01b03811681146107ff575f5ffd5b50565b803561080d816107eb565b919050565b634e487b7160e01b5f52604160045260245ffd5b5f82601f830112610835575f5ffd5b81356001600160401b0381111561084e5761084e610812565b604051601f8201601f19908116603f011681016001600160401b038111828210171561087c5761087c610812565b604052818152838201602001851015610893575f5ffd5b816020850160208301375f918101602001919091529392505050565b80356002811061080d575f5ffd5b5f5f5f5f5f60a086880312156108d1575f5ffd5b85356108dc816107eb565b94506020860135935060408601356001600160401b038111156108fd575f5ffd5b61090988828901610826565b935050610918606087016108af565b91506080860135610928816107eb565b809150509295509295909350565b5f5f5f5f5f5f5f5f5f5f5f6101608c8e031215610951575f5ffd5b61095a8c610802565b9a5060208c0135995060408c01356001600160401b0381111561097b575f5ffd5b6109878e828f01610826565b99505061099660608d016108af565b975060808c0135965060a08c0135955060c08c013594506109b960e08d01610802565b93506109c86101008d01610802565b92506101208c01356001600160401b038111156109e3575f5ffd5b6109ef8e828f01610826565b9250506109ff6101408d01610802565b90509295989b509295989b9093969950565b634e487b7160e01b5f52602160045260245ffd5b60028110610a4157634e487b7160e01b5f52602160045260245ffd5b9052565b60408101610a538285610a25565b8260208301529392505050565b5f60208284031215610a70575f5ffd5b5051919050565b60018060a01b038b16815289602082015261014060408201525f8951806101408401528060208c0161016085015e5f6101608285010152610160601f19601f830116840101915050610acc606083018a610a25565b8760808301528660a08301528560c0830152610af360e08301866001600160a01b03169052565b6001600160a01b0393909316610100820152610120015298975050505050505050565b6bffffffffffffffffffffffff198660601b1681528460148201525f84518060208701603485015e8083019050603481015f815260028610610b6657634e487b7160e01b5f52602160045260245ffd5b60f89590951b909452505060601b6bffffffffffffffffffffffff191660358201526049019392505050565b805160208201516001600160e01b0319811691906004821015610bc9576001600160e01b0319600483900360031b81901b82161692505b5050919050565b634e487b7160e01b5f52601160045260245ffd5b80820180821115610bf757610bf7610bd0565b92915050565b6001600160401b038181168382160190811115610bf757610bf7610bd0565b6001600160801b038181168382160190811115610bf757610bf7610bd0565b83815260608101610c4f6020830185610a25565b826040830152949350505050565b5f82610c7757634e487b7160e01b5f52601260045260245ffd5b50049056fea264697066735822122031639cd62a0f6e9979ba8a5567adee1dbad5759d5e24d889a2c6c70e3f7034ea64736f6c634300081e0033",
        "nonce": "0x103",
        "chainId": "0x15eb"
      },
      "additionalContracts": [],
      "isFixedGasLimit": false
    },
    {
      "hash": "0x98e14efbf74c7f78ce86eb2de9be209b020a989d79d24d7ff6d741176369c9be",
      "transactionType": "CALL",
      "contractName": null,
      "contractAddress": "0x7b967c855b855e071359eda1c6d7d691c31697af",
      "function": "diamondCut((address,uint8,bytes4[])[],address,bytes)",
      "arguments": [
        "[(0x0f8686127e460ec0b30693270FF18db4D4507B0b, 1, [0x75f0bb52, 0x93271368, 0x728c2972, 0x2acc37aa])]",
        "0x7B967c855b855e071359eDa1C6D7D691C31697Af",
        "0x"
      ],
      "transaction": {
        "from": "0x539ea4213dae490e764d779457bb8c1e7f6864bd",
        "to": "0x7b967c855b855e071359eda1c6d7d691c31697af",
        "gas": "0x18a40",
        "value": "0x0",
        "input": "0x1f931c1c00000000000000000000000000000000000000000000000000000000000000600000000000000000000000007b967c855b855e071359eda1c6d7d691c31697af00000000000000000000000000000000000000000000000000000000000001a0000000000000000000000000000000000000000000000000000000000000000100000000000000000000000000000000000000000000000000000000000000200000000000000000000000000f8686127e460ec0b30693270ff18db4d4507b0b00000000000000000000000000000000000000000000000000000000000000010000000000000000000000000000000000000000000000000000000000000060000000000000000000000000000000000000000000000000000000000000000475f0bb52000000000000000000000000000000000000000000000000000000009327136800000000000000000000000000000000000000000000000000000000728c2972000000000000000000000000000000000000000000000000000000002acc37aa000000000000000000000000000000000000000000000000000000000000000000000000000000000000000000000000000000000000000000000000",
        "nonce": "0x104",
        "chainId": "0x15eb"
      },
      "additionalContracts": [],
      "isFixedGasLimit": false
    }
  ],
  "receipts": [
    {
      "status": "0x1",
      "cumulativeGasUsed": "0xc49c6",
      "logs": [],
      "logsBloom": "0x00000000000000000000000000000000000000000000000000000000000000000000000000000000000000000000000000000000000000000000000000000000000000000000000000000000000000000000000000000000000000000000000000000000000000000000000000000000000000000000000000000000000000000000000000000000000000000000000000000000000000000000000000000000000000000000000000000000000000000000000000000000000000000000000000000000000000000000000000000000000000000000000000000000000000000000000000000000000000000000000000000000000000000000000000000000",
      "type": "0x2",
      "transactionHash": "0x9aec9094e42153507e0a7d83052757a8b401d86673936377dac6fb03e47f03e1",
      "transactionIndex": "0x1",
      "blockHash": "0xa51d35c48da782441eb47628aa80c91c33f2e569be59991b9f8e803751b25653",
      "blockNumber": "0x65e661c",
      "gasUsed": "0xb88b3",
      "effectiveGasPrice": "0x1",
      "from": "0x539ea4213dae490e764d779457bb8c1e7f6864bd",
      "to": null,
      "contractAddress": "0x0f8686127e460ec0b30693270ff18db4d4507b0b",
      "l1BaseFeeScalar": "0x109a0",
      "l1BlobBaseFee": "0x1",
      "l1BlobBaseFeeScalar": "0x9fe98",
      "l1Fee": "0x213ae66855e",
      "l1GasPrice": "0x3b9aca00",
      "l1GasUsed": "0x832d"
    },
    {
      "status": "0x1",
      "cumulativeGasUsed": "0xd5759",
      "logs": [
        {
          "address": "0x7b967c855b855e071359eda1c6d7d691c31697af",
          "topics": [
            "0x8faa70878671ccd212d20771b795c50af8fd3ff6cf27f4bde57e5d4de0aeb673"
          ],
          "data": "0x00000000000000000000000000000000000000000000000000000000000000600000000000000000000000007b967c855b855e071359eda1c6d7d691c31697af00000000000000000000000000000000000000000000000000000000000001a0000000000000000000000000000000000000000000000000000000000000000100000000000000000000000000000000000000000000000000000000000000200000000000000000000000000f8686127e460ec0b30693270ff18db4d4507b0b00000000000000000000000000000000000000000000000000000000000000010000000000000000000000000000000000000000000000000000000000000060000000000000000000000000000000000000000000000000000000000000000475f0bb52000000000000000000000000000000000000000000000000000000009327136800000000000000000000000000000000000000000000000000000000728c2972000000000000000000000000000000000000000000000000000000002acc37aa000000000000000000000000000000000000000000000000000000000000000000000000000000000000000000000000000000000000000000000000",
          "blockHash": "0xa51d35c48da782441eb47628aa80c91c33f2e569be59991b9f8e803751b25653",
          "blockNumber": "0x65e661c",
          "transactionHash": "0x98e14efbf74c7f78ce86eb2de9be209b020a989d79d24d7ff6d741176369c9be",
          "transactionIndex": "0x2",
          "logIndex": "0x0",
          "removed": false
        }
      ],
      "logsBloom": "0x00000020000000000000000000000000000000000000000000000000000000000000000000000000000000000000000000000000000000000000000000000000000000000000000000000000000000000000000001000000000800000000000000000000000000000000000000000000000000000000000000000800000000000020000000000000000000000000000000000000000000000000000000000000000000000000000000000000000000000000000000000000000000000000000000000000000000000000000000000000000000020000000000000000000000000000000000000000000000000000000000000000000000000000000000000000",
      "type": "0x2",
      "transactionHash": "0x98e14efbf74c7f78ce86eb2de9be209b020a989d79d24d7ff6d741176369c9be",
      "transactionIndex": "0x2",
      "blockHash": "0xa51d35c48da782441eb47628aa80c91c33f2e569be59991b9f8e803751b25653",
      "blockNumber": "0x65e661c",
      "gasUsed": "0x10d93",
      "effectiveGasPrice": "0x1",
      "from": "0x539ea4213dae490e764d779457bb8c1e7f6864bd",
      "to": "0x7b967c855b855e071359eda1c6d7d691c31697af",
      "contractAddress": null,
      "l1BaseFeeScalar": "0x109a0",
      "l1BlobBaseFee": "0x1",
      "l1BlobBaseFeeScalar": "0x9fe98",
      "l1Fee": "0x27db56fb67",
      "l1GasPrice": "0x3b9aca00",
      "l1GasUsed": "0x9d5"
    }
  ],
  "libraries": [],
  "pending": [],
  "returns": {},
  "timestamp": 1765521782163,
  "chain": 5611,
  "commit": "4c83aa5"
}